{
  "contractName": "ERC20TD",
  "abi": [
    {
      "inputs": [
        {
          "internalType": "string",
          "name": "name",
          "type": "string"
        },
        {
          "internalType": "string",
          "name": "symbol",
          "type": "string"
        },
        {
          "internalType": "uint256",
          "name": "initialSupply",
          "type": "uint256"
        }
      ],
      "stateMutability": "nonpayable",
      "type": "constructor"
    },
    {
      "anonymous": false,
      "inputs": [
        {
          "indexed": true,
          "internalType": "address",
          "name": "owner",
          "type": "address"
        },
        {
          "indexed": true,
          "internalType": "address",
          "name": "spender",
          "type": "address"
        },
        {
          "indexed": false,
          "internalType": "uint256",
          "name": "value",
          "type": "uint256"
        }
      ],
      "name": "Approval",
      "type": "event"
    },
    {
      "anonymous": false,
      "inputs": [
        {
          "indexed": false,
          "internalType": "address",
          "name": "recipient",
          "type": "address"
        },
        {
          "indexed": false,
          "internalType": "uint256",
          "name": "amount",
          "type": "uint256"
        }
      ],
      "name": "DenyTransfer",
      "type": "event"
    },
    {
      "anonymous": false,
      "inputs": [
        {
          "indexed": false,
          "internalType": "address",
          "name": "sender",
          "type": "address"
        },
        {
          "indexed": false,
          "internalType": "address",
          "name": "recipient",
          "type": "address"
        },
        {
          "indexed": false,
          "internalType": "uint256",
          "name": "amount",
          "type": "uint256"
        }
      ],
      "name": "DenyTransferFrom",
      "type": "event"
    },
    {
      "anonymous": false,
      "inputs": [
        {
          "indexed": true,
          "internalType": "address",
          "name": "from",
          "type": "address"
        },
        {
          "indexed": true,
          "internalType": "address",
          "name": "to",
          "type": "address"
        },
        {
          "indexed": false,
          "internalType": "uint256",
          "name": "value",
          "type": "uint256"
        }
      ],
      "name": "Transfer",
      "type": "event"
    },
    {
      "inputs": [
        {
          "internalType": "address",
          "name": "owner",
          "type": "address"
        },
        {
          "internalType": "address",
          "name": "spender",
          "type": "address"
        }
      ],
      "name": "allowance",
      "outputs": [
        {
          "internalType": "uint256",
          "name": "",
          "type": "uint256"
        }
      ],
      "stateMutability": "view",
      "type": "function"
    },
    {
      "inputs": [
        {
          "internalType": "address",
          "name": "spender",
          "type": "address"
        },
        {
          "internalType": "uint256",
          "name": "amount",
          "type": "uint256"
        }
      ],
      "name": "approve",
      "outputs": [
        {
          "internalType": "bool",
          "name": "",
          "type": "bool"
        }
      ],
      "stateMutability": "nonpayable",
      "type": "function"
    },
    {
      "inputs": [
        {
          "internalType": "address",
          "name": "account",
          "type": "address"
        }
      ],
      "name": "balanceOf",
      "outputs": [
        {
          "internalType": "uint256",
          "name": "",
          "type": "uint256"
        }
      ],
      "stateMutability": "view",
      "type": "function"
    },
    {
      "inputs": [],
      "name": "decimals",
      "outputs": [
        {
          "internalType": "uint8",
          "name": "",
          "type": "uint8"
        }
      ],
      "stateMutability": "view",
      "type": "function"
    },
    {
      "inputs": [
        {
          "internalType": "address",
          "name": "spender",
          "type": "address"
        },
        {
          "internalType": "uint256",
          "name": "subtractedValue",
          "type": "uint256"
        }
      ],
      "name": "decreaseAllowance",
      "outputs": [
        {
          "internalType": "bool",
          "name": "",
          "type": "bool"
        }
      ],
      "stateMutability": "nonpayable",
      "type": "function"
    },
    {
      "inputs": [
        {
          "internalType": "address",
          "name": "spender",
          "type": "address"
        },
        {
          "internalType": "uint256",
          "name": "addedValue",
          "type": "uint256"
        }
      ],
      "name": "increaseAllowance",
      "outputs": [
        {
          "internalType": "bool",
          "name": "",
          "type": "bool"
        }
      ],
      "stateMutability": "nonpayable",
      "type": "function"
    },
    {
      "inputs": [],
      "name": "name",
      "outputs": [
        {
          "internalType": "string",
          "name": "",
          "type": "string"
        }
      ],
      "stateMutability": "view",
      "type": "function"
    },
    {
      "inputs": [],
      "name": "symbol",
      "outputs": [
        {
          "internalType": "string",
          "name": "",
          "type": "string"
        }
      ],
      "stateMutability": "view",
      "type": "function"
    },
    {
      "inputs": [
        {
          "internalType": "address",
          "name": "",
          "type": "address"
        }
      ],
      "name": "teachers",
      "outputs": [
        {
          "internalType": "bool",
          "name": "",
          "type": "bool"
        }
      ],
      "stateMutability": "view",
      "type": "function"
    },
    {
      "inputs": [],
      "name": "totalSupply",
      "outputs": [
        {
          "internalType": "uint256",
          "name": "",
          "type": "uint256"
        }
      ],
      "stateMutability": "view",
      "type": "function"
    },
    {
      "inputs": [
        {
          "internalType": "address",
          "name": "tokenReceiver",
          "type": "address"
        },
        {
          "internalType": "uint256",
          "name": "amount",
          "type": "uint256"
        }
      ],
      "name": "distributeTokens",
      "outputs": [],
      "stateMutability": "nonpayable",
      "type": "function"
    },
    {
      "inputs": [
        {
          "internalType": "address",
          "name": "teacherAddress",
          "type": "address"
        },
        {
          "internalType": "bool",
          "name": "isTeacher",
          "type": "bool"
        }
      ],
      "name": "setTeacher",
      "outputs": [],
      "stateMutability": "nonpayable",
      "type": "function"
    },
    {
      "inputs": [
        {
          "internalType": "address",
          "name": "recipient",
          "type": "address"
        },
        {
          "internalType": "uint256",
          "name": "amount",
          "type": "uint256"
        }
      ],
      "name": "transfer",
      "outputs": [
        {
          "internalType": "bool",
          "name": "",
          "type": "bool"
        }
      ],
      "stateMutability": "nonpayable",
      "type": "function"
    },
    {
      "inputs": [
        {
          "internalType": "address",
          "name": "sender",
          "type": "address"
        },
        {
          "internalType": "address",
          "name": "recipient",
          "type": "address"
        },
        {
          "internalType": "uint256",
          "name": "amount",
          "type": "uint256"
        }
      ],
      "name": "transferFrom",
      "outputs": [
        {
          "internalType": "bool",
          "name": "",
          "type": "bool"
        }
      ],
      "stateMutability": "nonpayable",
      "type": "function"
    }
  ],
  "bytecode": "0x60806040523480156200001157600080fd5b5060405162001bd038038062001bd083398181016040528101906200003791906200039c565b828281600390805190602001906200005192919062000263565b5080600490805190602001906200006a92919062000263565b5050506200007f3382620000e060201b60201c565b6001600560003373ffffffffffffffffffffffffffffffffffffffff1673ffffffffffffffffffffffffffffffffffffffff16815260200190815260200160002060006101000a81548160ff021916908315150217905550505050620006f5565b600073ffffffffffffffffffffffffffffffffffffffff168273ffffffffffffffffffffffffffffffffffffffff16141562000153576040517f08c379a00000000000000000000000000000000000000000000000000000000081526004016200014a906200045c565b60405180910390fd5b62000167600083836200025960201b60201c565b80600260008282546200017b91906200050b565b92505081905550806000808473ffffffffffffffffffffffffffffffffffffffff1673ffffffffffffffffffffffffffffffffffffffff1681526020019081526020016000206000828254620001d291906200050b565b925050819055508173ffffffffffffffffffffffffffffffffffffffff16600073ffffffffffffffffffffffffffffffffffffffff167fddf252ad1be2c89b69c2b068fc378daa952ba7f163c4a11628f55a4df523b3ef836040516200023991906200047e565b60405180910390a362000255600083836200025e60201b60201c565b5050565b505050565b505050565b8280546200027190620005a8565b90600052602060002090601f016020900481019282620002955760008555620002e1565b82601f10620002b057805160ff1916838001178555620002e1565b82800160010185558215620002e1579182015b82811115620002e0578251825591602001919060010190620002c3565b5b509050620002f09190620002f4565b5090565b5b808211156200030f576000816000905550600101620002f5565b5090565b60006200032a6200032484620004c4565b6200049b565b9050828152602081018484840111156200034357600080fd5b6200035084828562000572565b509392505050565b600082601f8301126200036a57600080fd5b81516200037c84826020860162000313565b91505092915050565b6000815190506200039681620006db565b92915050565b600080600060608486031215620003b257600080fd5b600084015167ffffffffffffffff811115620003cd57600080fd5b620003db8682870162000358565b935050602084015167ffffffffffffffff811115620003f957600080fd5b620004078682870162000358565b92505060406200041a8682870162000385565b9150509250925092565b600062000433601f83620004fa565b91506200044082620006b2565b602082019050919050565b620004568162000568565b82525050565b60006020820190508181036000830152620004778162000424565b9050919050565b60006020820190506200049560008301846200044b565b92915050565b6000620004a7620004ba565b9050620004b58282620005de565b919050565b6000604051905090565b600067ffffffffffffffff821115620004e257620004e162000672565b5b620004ed82620006a1565b9050602081019050919050565b600082825260208201905092915050565b6000620005188262000568565b9150620005258362000568565b9250827fffffffffffffffffffffffffffffffffffffffffffffffffffffffffffffffff038211156200055d576200055c62000614565b5b828201905092915050565b6000819050919050565b60005b838110156200059257808201518184015260208101905062000575565b83811115620005a2576000848401525b50505050565b60006002820490506001821680620005c157607f821691505b60208210811415620005d857620005d762000643565b5b50919050565b620005e982620006a1565b810181811067ffffffffffffffff821117156200060b576200060a62000672565b5b80604052505050565b7f4e487b7100000000000000000000000000000000000000000000000000000000600052601160045260246000fd5b7f4e487b7100000000000000000000000000000000000000000000000000000000600052602260045260246000fd5b7f4e487b7100000000000000000000000000000000000000000000000000000000600052604160045260246000fd5b6000601f19601f8301169050919050565b7f45524332303a206d696e7420746f20746865207a65726f206164647265737300600082015250565b620006e68162000568565b8114620006f257600080fd5b50565b6114cb80620007056000396000f3fe608060405234801561001057600080fd5b50600436106100ea5760003560e01c8063395093511161008c578063a457c2d711610066578063a457c2d71461025f578063a9059cbb1461028f578063dd62ed3e146102bf578063f0a47f78146102ef576100ea565b806339509351146101e157806370a082311461021157806395d89b4114610241576100ea565b8063158a4988116100c8578063158a49881461015957806318160ddd1461017557806323b872dd14610193578063313ce567146101c3576100ea565b8063059e7d43146100ef57806306fdde031461010b578063095ea7b314610129575b600080fd5b61010960048036038101906101049190610cfb565b61031f565b005b6101136103d0565b6040516101209190610eef565b60405180910390f35b610143600480360381019061013e9190610d37565b610462565b6040516101509190610ed4565b60405180910390f35b610173600480360381019061016e9190610d37565b610485565b005b61017d610516565b60405161018a9190610f91565b60405180910390f35b6101ad60048036038101906101a89190610cac565b610520565b6040516101ba9190610ed4565b60405180910390f35b6101cb610568565b6040516101d89190610fac565b60405180910390f35b6101fb60048036038101906101f69190610d37565b610571565b6040516102089190610ed4565b60405180910390f35b61022b60048036038101906102269190610c47565b61061b565b6040516102389190610f91565b60405180910390f35b610249610663565b6040516102569190610eef565b60405180910390f35b61027960048036038101906102749190610d37565b6106f5565b6040516102869190610ed4565b60405180910390f35b6102a960048036038101906102a49190610d37565b6107df565b6040516102b69190610ed4565b60405180910390f35b6102d960048036038101906102d49190610c70565b610824565b6040516102e69190610f91565b60405180910390f35b61030960048036038101906103049190610c47565b6108ab565b6040516103169190610ed4565b60405180910390f35b600560003373ffffffffffffffffffffffffffffffffffffffff1673ffffffffffffffffffffffffffffffffffffffff16815260200190815260200160002060009054906101000a900460ff1661037557600080fd5b80600560008473ffffffffffffffffffffffffffffffffffffffff1673ffffffffffffffffffffffffffffffffffffffff16815260200190815260200160002060006101000a81548160ff0219169083151502179055505050565b6060600380546103df9061128c565b80601f016020809104026020016040519081016040528092919081815260200182805461040b9061128c565b80156104585780601f1061042d57610100808354040283529160200191610458565b820191906000526020600020905b81548152906001019060200180831161043b57829003601f168201915b5050505050905090565b60008061046d6108cb565b905061047a8185856108d3565b600191505092915050565b600560003373ffffffffffffffffffffffffffffffffffffffff1673ffffffffffffffffffffffffffffffffffffffff16815260200190815260200160002060009054906101000a900460ff166104db57600080fd5b60006104e5610568565b60ff169050600081600a6104f9919061108c565b905061051084828561050b91906111aa565b610a9e565b50505050565b6000600254905090565b60007fd0694e7d49b27f4b4a961ce3805328af4167444e06ff16117cdd1a58ac82a07684848460405161055593929190610e74565b60405180910390a1600090509392505050565b60006012905090565b60008061057c6108cb565b9050610610818585600160008673ffffffffffffffffffffffffffffffffffffffff1673ffffffffffffffffffffffffffffffffffffffff16815260200190815260200160002060008973ffffffffffffffffffffffffffffffffffffffff1673ffffffffffffffffffffffffffffffffffffffff1681526020019081526020016000205461060b9190610fe3565b6108d3565b600191505092915050565b60008060008373ffffffffffffffffffffffffffffffffffffffff1673ffffffffffffffffffffffffffffffffffffffff168152602001908152602001600020549050919050565b6060600480546106729061128c565b80601f016020809104026020016040519081016040528092919081815260200182805461069e9061128c565b80156106eb5780601f106106c0576101008083540402835291602001916106eb565b820191906000526020600020905b8154815290600101906020018083116106ce57829003601f168201915b5050505050905090565b6000806107006108cb565b90506000600160008373ffffffffffffffffffffffffffffffffffffffff1673ffffffffffffffffffffffffffffffffffffffff16815260200190815260200160002060008673ffffffffffffffffffffffffffffffffffffffff1673ffffffffffffffffffffffffffffffffffffffff168152602001908152602001600020549050838110156107c6576040517f08c379a00000000000000000000000000000000000000000000000000000000081526004016107bd90610f51565b60405180910390fd5b6107d382868684036108d3565b60019250505092915050565b60007fc6b2ad30756dffa7b99169519666c366309cf8ad0d54999b1b472775854fc8da8383604051610812929190610eab565b60405180910390a16000905092915050565b6000600160008473ffffffffffffffffffffffffffffffffffffffff1673ffffffffffffffffffffffffffffffffffffffff16815260200190815260200160002060008373ffffffffffffffffffffffffffffffffffffffff1673ffffffffffffffffffffffffffffffffffffffff16815260200190815260200160002054905092915050565b60056020528060005260406000206000915054906101000a900460ff1681565b600033905090565b600073ffffffffffffffffffffffffffffffffffffffff168373ffffffffffffffffffffffffffffffffffffffff161415610943576040517f08c379a000000000000000000000000000000000000000000000000000000000815260040161093a90610f31565b60405180910390fd5b600073ffffffffffffffffffffffffffffffffffffffff168273ffffffffffffffffffffffffffffffffffffffff1614156109b3576040517f08c379a00000000000000000000000000000000000000000000000000000000081526004016109aa90610f11565b60405180910390fd5b80600160008573ffffffffffffffffffffffffffffffffffffffff1673ffffffffffffffffffffffffffffffffffffffff16815260200190815260200160002060008473ffffffffffffffffffffffffffffffffffffffff1673ffffffffffffffffffffffffffffffffffffffff168152602001908152602001600020819055508173ffffffffffffffffffffffffffffffffffffffff168373ffffffffffffffffffffffffffffffffffffffff167f8c5be1e5ebec7d5bd14f71427d1e84f3dd0314c0f7b2291e5b200ac8c7c3b92583604051610a919190610f91565b60405180910390a3505050565b600073ffffffffffffffffffffffffffffffffffffffff168273ffffffffffffffffffffffffffffffffffffffff161415610b0e576040517f08c379a0000000000000000000000000000000000000000000000000000000008152600401610b0590610f71565b60405180910390fd5b610b1a60008383610bfe565b8060026000828254610b2c9190610fe3565b92505081905550806000808473ffffffffffffffffffffffffffffffffffffffff1673ffffffffffffffffffffffffffffffffffffffff1681526020019081526020016000206000828254610b819190610fe3565b925050819055508173ffffffffffffffffffffffffffffffffffffffff16600073ffffffffffffffffffffffffffffffffffffffff167fddf252ad1be2c89b69c2b068fc378daa952ba7f163c4a11628f55a4df523b3ef83604051610be69190610f91565b60405180910390a3610bfa60008383610c03565b5050565b505050565b505050565b600081359050610c1781611450565b92915050565b600081359050610c2c81611467565b92915050565b600081359050610c418161147e565b92915050565b600060208284031215610c5957600080fd5b6000610c6784828501610c08565b91505092915050565b60008060408385031215610c8357600080fd5b6000610c9185828601610c08565b9250506020610ca285828601610c08565b9150509250929050565b600080600060608486031215610cc157600080fd5b6000610ccf86828701610c08565b9350506020610ce086828701610c08565b9250506040610cf186828701610c32565b9150509250925092565b60008060408385031215610d0e57600080fd5b6000610d1c85828601610c08565b9250506020610d2d85828601610c1d565b9150509250929050565b60008060408385031215610d4a57600080fd5b6000610d5885828601610c08565b9250506020610d6985828601610c32565b9150509250929050565b610d7c81611204565b82525050565b610d8b81611216565b82525050565b6000610d9c82610fc7565b610da68185610fd2565b9350610db6818560208601611259565b610dbf8161131c565b840191505092915050565b6000610dd7602283610fd2565b9150610de28261133a565b604082019050919050565b6000610dfa602483610fd2565b9150610e0582611389565b604082019050919050565b6000610e1d602583610fd2565b9150610e28826113d8565b604082019050919050565b6000610e40601f83610fd2565b9150610e4b82611427565b602082019050919050565b610e5f81611242565b82525050565b610e6e8161124c565b82525050565b6000606082019050610e896000830186610d73565b610e966020830185610d73565b610ea36040830184610e56565b949350505050565b6000604082019050610ec06000830185610d73565b610ecd6020830184610e56565b9392505050565b6000602082019050610ee96000830184610d82565b92915050565b60006020820190508181036000830152610f098184610d91565b905092915050565b60006020820190508181036000830152610f2a81610dca565b9050919050565b60006020820190508181036000830152610f4a81610ded565b9050919050565b60006020820190508181036000830152610f6a81610e10565b9050919050565b60006020820190508181036000830152610f8a81610e33565b9050919050565b6000602082019050610fa66000830184610e56565b92915050565b6000602082019050610fc16000830184610e65565b92915050565b600081519050919050565b600082825260208201905092915050565b6000610fee82611242565b9150610ff983611242565b9250827fffffffffffffffffffffffffffffffffffffffffffffffffffffffffffffffff0382111561102e5761102d6112be565b5b828201905092915050565b6000808291508390505b60018511156110835780860481111561105f5761105e6112be565b5b600185161561106e5780820291505b808102905061107c8561132d565b9450611043565b94509492505050565b600061109782611242565b91506110a283611242565b92506110cf7fffffffffffffffffffffffffffffffffffffffffffffffffffffffffffffffff84846110d7565b905092915050565b6000826110e757600190506111a3565b816110f557600090506111a3565b816001811461110b576002811461111557611144565b60019150506111a3565b60ff841115611127576111266112be565b5b8360020a91508482111561113e5761113d6112be565b5b506111a3565b5060208310610133831016604e8410600b84101617156111795782820a905083811115611174576111736112be565b5b6111a3565b6111868484846001611039565b9250905081840481111561119d5761119c6112be565b5b81810290505b9392505050565b60006111b582611242565b91506111c083611242565b9250817fffffffffffffffffffffffffffffffffffffffffffffffffffffffffffffffff04831182151516156111f9576111f86112be565b5b828202905092915050565b600061120f82611222565b9050919050565b60008115159050919050565b600073ffffffffffffffffffffffffffffffffffffffff82169050919050565b6000819050919050565b600060ff82169050919050565b60005b8381101561127757808201518184015260208101905061125c565b83811115611286576000848401525b50505050565b600060028204905060018216806112a457607f821691505b602082108114156112b8576112b76112ed565b5b50919050565b7f4e487b7100000000000000000000000000000000000000000000000000000000600052601160045260246000fd5b7f4e487b7100000000000000000000000000000000000000000000000000000000600052602260045260246000fd5b6000601f19601f8301169050919050565b60008160011c9050919050565b7f45524332303a20617070726f766520746f20746865207a65726f20616464726560008201527f7373000000000000000000000000000000000000000000000000000000000000602082015250565b7f45524332303a20617070726f76652066726f6d20746865207a65726f2061646460008201527f7265737300000000000000000000000000000000000000000000000000000000602082015250565b7f45524332303a2064656372656173656420616c6c6f77616e63652062656c6f7760008201527f207a65726f000000000000000000000000000000000000000000000000000000602082015250565b7f45524332303a206d696e7420746f20746865207a65726f206164647265737300600082015250565b61145981611204565b811461146457600080fd5b50565b61147081611216565b811461147b57600080fd5b50565b61148781611242565b811461149257600080fd5b5056fea26469706673582212200ccbf1ba80502ece9daf1f29ac9b282fb0e8eed8bcb03e3538f66da77c7ff9d664736f6c63430008020033",
  "immutableReferences": {},
  "source": "pragma solidity >0.6.0;\r\nimport \"@openzeppelin/contracts/token/ERC20/ERC20.sol\";\r\n\r\ncontract ERC20TD is ERC20 {\r\n\r\nmapping(address => bool) public teachers;\r\nevent DenyTransfer(address recipient, uint256 amount);\r\nevent DenyTransferFrom(address sender, address recipient, uint256 amount);\r\n\r\nconstructor(string memory name, string memory symbol,uint256 initialSupply) public ERC20(name, symbol) {\r\n        _mint(msg.sender, initialSupply);\r\n        teachers[msg.sender] = true;\r\n    }\r\n\r\nfunction distributeTokens(address tokenReceiver, uint256 amount) \r\npublic\r\nonlyTeachers\r\n{\r\n\tuint256 decimals = decimals();\r\n\tuint256 multiplicator = 10**decimals;\r\n  _mint(tokenReceiver, amount * multiplicator);\r\n}\r\n\r\nfunction setTeacher(address teacherAddress, bool isTeacher) \r\npublic\r\nonlyTeachers\r\n{\r\n  teachers[teacherAddress] = isTeacher;\r\n}\r\n\r\nmodifier onlyTeachers() {\r\n\r\n    require(teachers[msg.sender]);\r\n    _;\r\n  }\r\n\r\nfunction transfer(address recipient, uint256 amount) public override returns (bool) {\r\n\temit DenyTransfer(recipient, amount);\r\n        return false;\r\n    }\r\n\r\n  function transferFrom(address sender, address recipient, uint256 amount) public override returns (bool) {\r\n  emit DenyTransferFrom(sender, recipient, amount);\r\n        return false;\r\n    }\r\n\r\n}",
  "sourcePath": "D:\\Dossier Alexis\\Administratif\\Ecole\\Cours\\S8\\Decentralized Finance\\TD4-DeFi\\contracts\\ERC20TD.sol",
  "compiler": {
    "name": "solc",
    "version": "0.8.2+commit.661d1103.Emscripten.clang"
  },
  "schemaVersion": "3.4.6",
  "updatedAt": "2022-04-09T05:17:31.089Z",
  "devdoc": {
    "kind": "dev",
    "methods": {
      "allowance(address,address)": {
        "details": "See {IERC20-allowance}."
      },
      "approve(address,uint256)": {
        "details": "See {IERC20-approve}. NOTE: If `amount` is the maximum `uint256`, the allowance is not updated on `transferFrom`. This is semantically equivalent to an infinite approval. Requirements: - `spender` cannot be the zero address."
      },
      "balanceOf(address)": {
        "details": "See {IERC20-balanceOf}."
      },
      "decimals()": {
        "details": "Returns the number of decimals used to get its user representation. For example, if `decimals` equals `2`, a balance of `505` tokens should be displayed to a user as `5.05` (`505 / 10 ** 2`). Tokens usually opt for a value of 18, imitating the relationship between Ether and Wei. This is the value {ERC20} uses, unless this function is overridden; NOTE: This information is only used for _display_ purposes: it in no way affects any of the arithmetic of the contract, including {IERC20-balanceOf} and {IERC20-transfer}."
      },
      "decreaseAllowance(address,uint256)": {
        "details": "Atomically decreases the allowance granted to `spender` by the caller. This is an alternative to {approve} that can be used as a mitigation for problems described in {IERC20-approve}. Emits an {Approval} event indicating the updated allowance. Requirements: - `spender` cannot be the zero address. - `spender` must have allowance for the caller of at least `subtractedValue`."
      },
      "increaseAllowance(address,uint256)": {
        "details": "Atomically increases the allowance granted to `spender` by the caller. This is an alternative to {approve} that can be used as a mitigation for problems described in {IERC20-approve}. Emits an {Approval} event indicating the updated allowance. Requirements: - `spender` cannot be the zero address."
      },
      "name()": {
        "details": "Returns the name of the token."
      },
      "symbol()": {
        "details": "Returns the symbol of the token, usually a shorter version of the name."
      },
      "totalSupply()": {
        "details": "See {IERC20-totalSupply}."
      }
    },
    "version": 1
  },
  "userdoc": {
    "kind": "user",
    "methods": {},
    "version": 1
  }
}