{
  "contractName": "Evaluator",
  "abi": [
    {
      "inputs": [
        {
          "internalType": "contract ERC20TD",
          "name": "_TDAAVE",
          "type": "address"
        },
        {
          "internalType": "contract IERC20",
          "name": "_aDAI",
          "type": "address"
        },
        {
          "internalType": "contract IERC20",
          "name": "_USDC",
          "type": "address"
        },
        {
          "internalType": "contract IERC20",
          "name": "_variableDebtUSDC",
          "type": "address"
        }
      ],
      "stateMutability": "nonpayable",
      "type": "constructor"
    },
    {
      "anonymous": false,
      "inputs": [
        {
          "indexed": false,
          "internalType": "address",
          "name": "erc20Address",
          "type": "address"
        },
        {
          "indexed": false,
          "internalType": "address",
          "name": "adaiAddress",
          "type": "address"
        },
        {
          "indexed": false,
          "internalType": "address",
          "name": "UsdcAddress",
          "type": "address"
        },
        {
          "indexed": false,
          "internalType": "address",
          "name": "variableDebtUSDCAddress",
          "type": "address"
        }
      ],
      "name": "constructedCorrectly",
      "type": "event"
    },
    {
      "stateMutability": "payable",
      "type": "fallback"
    },
    {
      "inputs": [],
      "name": "TDAAVE",
      "outputs": [
        {
          "internalType": "contract ERC20TD",
          "name": "",
          "type": "address"
        }
      ],
      "stateMutability": "view",
      "type": "function"
    },
    {
      "inputs": [],
      "name": "USDC",
      "outputs": [
        {
          "internalType": "contract IERC20",
          "name": "",
          "type": "address"
        }
      ],
      "stateMutability": "view",
      "type": "function"
    },
    {
      "inputs": [],
      "name": "aDAI",
      "outputs": [
        {
          "internalType": "contract IERC20",
          "name": "",
          "type": "address"
        }
      ],
      "stateMutability": "view",
      "type": "function"
    },
    {
      "inputs": [
        {
          "internalType": "address",
          "name": "",
          "type": "address"
        },
        {
          "internalType": "uint256",
          "name": "",
          "type": "uint256"
        }
      ],
      "name": "exerciceProgression",
      "outputs": [
        {
          "internalType": "bool",
          "name": "",
          "type": "bool"
        }
      ],
      "stateMutability": "view",
      "type": "function"
    },
    {
      "inputs": [
        {
          "internalType": "address",
          "name": "",
          "type": "address"
        }
      ],
      "name": "hasBeenPaired",
      "outputs": [
        {
          "internalType": "bool",
          "name": "",
          "type": "bool"
        }
      ],
      "stateMutability": "view",
      "type": "function"
    },
    {
      "inputs": [
        {
          "internalType": "address",
          "name": "",
          "type": "address"
        }
      ],
      "name": "studentExercice",
      "outputs": [
        {
          "internalType": "contract IExerciceSolution",
          "name": "",
          "type": "address"
        }
      ],
      "stateMutability": "view",
      "type": "function"
    },
    {
      "inputs": [],
      "name": "variableDebtUSDC",
      "outputs": [
        {
          "internalType": "contract IERC20",
          "name": "",
          "type": "address"
        }
      ],
      "stateMutability": "view",
      "type": "function"
    },
    {
      "stateMutability": "payable",
      "type": "receive"
    },
    {
      "inputs": [],
      "name": "ex1_showIDepositedTokens",
      "outputs": [],
      "stateMutability": "nonpayable",
      "type": "function"
    },
    {
      "inputs": [],
      "name": "ex2_showIBorrowedTokens",
      "outputs": [],
      "stateMutability": "nonpayable",
      "type": "function"
    },
    {
      "inputs": [],
      "name": "ex3_showIRepaidTokens",
      "outputs": [],
      "stateMutability": "nonpayable",
      "type": "function"
    },
    {
      "inputs": [],
      "name": "ex4_showIWithdrewTokens",
      "outputs": [],
      "stateMutability": "nonpayable",
      "type": "function"
    },
    {
      "inputs": [],
      "name": "ex5_showContractCanDepositTokens",
      "outputs": [],
      "stateMutability": "nonpayable",
      "type": "function"
    },
    {
      "inputs": [],
      "name": "ex6_showContractCanBorrowTokens",
      "outputs": [],
      "stateMutability": "nonpayable",
      "type": "function"
    },
    {
      "inputs": [],
      "name": "ex7_showContractCanRepayTokens",
      "outputs": [],
      "stateMutability": "nonpayable",
      "type": "function"
    },
    {
      "inputs": [],
      "name": "ex8_showContractCanWithdrawTokens",
      "outputs": [],
      "stateMutability": "nonpayable",
      "type": "function"
    },
    {
      "inputs": [],
      "name": "ex9_performFlashLoan",
      "outputs": [],
      "stateMutability": "nonpayable",
      "type": "function"
    },
    {
      "inputs": [
        {
          "internalType": "contract IExerciceSolution",
          "name": "studentExercice_",
          "type": "address"
        }
      ],
      "name": "submitExercice",
      "outputs": [],
      "stateMutability": "nonpayable",
      "type": "function"
    }
  ],
  "bytecode": "0x60806040523480156200001157600080fd5b50604051620031bd380380620031bd833981810160405281019062000037919062000237565b836000806101000a81548173ffffffffffffffffffffffffffffffffffffffff021916908373ffffffffffffffffffffffffffffffffffffffff16021790555082600160006101000a81548173ffffffffffffffffffffffffffffffffffffffff021916908373ffffffffffffffffffffffffffffffffffffffff16021790555081600260006101000a81548173ffffffffffffffffffffffffffffffffffffffff021916908373ffffffffffffffffffffffffffffffffffffffff16021790555080600360006101000a81548173ffffffffffffffffffffffffffffffffffffffff021916908373ffffffffffffffffffffffffffffffffffffffff1602179055507f82169bf8e2a940653a3005b8fbe3a01d8ab56fd5bbbcd0bf31ac67b29cee1f9760008054906101000a900473ffffffffffffffffffffffffffffffffffffffff16600160009054906101000a900473ffffffffffffffffffffffffffffffffffffffff16600260009054906101000a900473ffffffffffffffffffffffffffffffffffffffff16600360009054906101000a900473ffffffffffffffffffffffffffffffffffffffff16604051620001f79493929190620002b4565b60405180910390a15050505062000391565b6000815190506200021a816200035d565b92915050565b600081519050620002318162000377565b92915050565b600080600080608085870312156200024e57600080fd5b60006200025e8782880162000209565b9450506020620002718782880162000220565b9350506040620002848782880162000220565b9250506060620002978782880162000220565b91505092959194509250565b620002ae8162000301565b82525050565b6000608082019050620002cb6000830187620002a3565b620002da6020830186620002a3565b620002e96040830185620002a3565b620002f86060830184620002a3565b95945050505050565b60006200030e826200033d565b9050919050565b6000620003228262000301565b9050919050565b6000620003368262000301565b9050919050565b600073ffffffffffffffffffffffffffffffffffffffff82169050919050565b620003688162000315565b81146200037457600080fd5b50565b620003828162000329565b81146200038e57600080fd5b50565b612e1c80620003a16000396000f3fe6080604052600436106101025760003560e01c80635d5fff3111610095578063a3f6214211610064578063a3f62142146102b9578063bae3872e146102d0578063dc87d1e7146102e7578063e604cbc414610312578063f4fdbb881461032957610109565b80635d5fff31146102355780635f00f3221461024c578063689d82c01461026357806389a302711461028e57610109565b80632e45a7b1116100d15780632e45a7b1146101b35780632e64c500146101ca57806330af745f146102075780633abe5e1f1461021e57610109565b80630c58c95c1461010b5780631a38a4fb146101485780632236d35314610173578063289cf40c1461019c57610109565b3661010957005b005b34801561011757600080fd5b50610132600480360381019061012d91906125d7565b610366565b60405161013f91906128f0565b60405180910390f35b34801561015457600080fd5b5061015d610399565b60405161016a91906128d5565b60405180910390f35b34801561017f57600080fd5b5061019a6004803603810190610195919061263c565b6103bf565b005b3480156101a857600080fd5b506101b16104ef565b005b3480156101bf57600080fd5b506101c861073a565b005b3480156101d657600080fd5b506101f160048036038101906101ec9190612600565b610a23565b6040516101fe919061289f565b60405180910390f35b34801561021357600080fd5b5061021c610a52565b005b34801561022a57600080fd5b50610233610ecf565b005b34801561024157600080fd5b5061024a61111a565b005b34801561025857600080fd5b50610261611493565b005b34801561026f57600080fd5b50610278611910565b60405161028591906128d5565b60405180910390f35b34801561029a57600080fd5b506102a3611936565b6040516102b091906128d5565b60405180910390f35b3480156102c557600080fd5b506102ce61195c565b005b3480156102dc57600080fd5b506102e5611c45565b005b3480156102f357600080fd5b506102fc6120c2565b60405161030991906128ba565b60405180910390f35b34801561031e57600080fd5b506103276120e6565b005b34801561033557600080fd5b50610350600480360381019061034b91906125d7565b612563565b60405161035d919061289f565b60405180910390f35b60056020528060005260406000206000915054906101000a900473ffffffffffffffffffffffffffffffffffffffff1681565b600160009054906101000a900473ffffffffffffffffffffffffffffffffffffffff1681565b600660008273ffffffffffffffffffffffffffffffffffffffff1673ffffffffffffffffffffffffffffffffffffffff16815260200190815260200160002060009054906101000a900460ff161561041657600080fd5b80600560003373ffffffffffffffffffffffffffffffffffffffff1673ffffffffffffffffffffffffffffffffffffffff16815260200190815260200160002060006101000a81548173ffffffffffffffffffffffffffffffffffffffff021916908373ffffffffffffffffffffffffffffffffffffffff1602179055506001600660008373ffffffffffffffffffffffffffffffffffffffff1673ffffffffffffffffffffffffffffffffffffffff16815260200190815260200160002060006101000a81548160ff02191690831515021790555050565b6000600360009054906101000a900473ffffffffffffffffffffffffffffffffffffffff1673ffffffffffffffffffffffffffffffffffffffff166370a08231336040518263ffffffff1660e01b815260040161054c9190612832565b60206040518083038186803b15801561056457600080fd5b505afa158015610578573d6000803e3d6000fd5b505050506040513d601f19601f8201168201806040525081019061059c9190612665565b116105dc576040517f08c379a00000000000000000000000000000000000000000000000000000000081526004016105d3906129eb565b60405180910390fd5b600460003373ffffffffffffffffffffffffffffffffffffffff1673ffffffffffffffffffffffffffffffffffffffff16815260200190815260200160002060006002815260200190815260200160002060009054906101000a900460ff16610738576001600460003373ffffffffffffffffffffffffffffffffffffffff1673ffffffffffffffffffffffffffffffffffffffff16815260200190815260200160002060006002815260200190815260200160002060006101000a81548160ff02191690831515021790555060008054906101000a900473ffffffffffffffffffffffffffffffffffffffff1673ffffffffffffffffffffffffffffffffffffffff1663158a49883360026040518363ffffffff1660e01b815260040161070592919061284d565b600060405180830381600087803b15801561071f57600080fd5b505af1158015610733573d6000803e3d6000fd5b505050505b565b600460003373ffffffffffffffffffffffffffffffffffffffff1673ffffffffffffffffffffffffffffffffffffffff16815260200190815260200160002060006002815260200190815260200160002060009054906101000a900460ff166107d8576040517f08c379a00000000000000000000000000000000000000000000000000000000081526004016107cf9061296b565b60405180910390fd5b6000600360009054906101000a900473ffffffffffffffffffffffffffffffffffffffff1673ffffffffffffffffffffffffffffffffffffffff166370a08231336040518263ffffffff1660e01b81526004016108359190612832565b60206040518083038186803b15801561084d57600080fd5b505afa158015610861573d6000803e3d6000fd5b505050506040513d601f19601f820116820180604052508101906108859190612665565b146108c5576040517f08c379a00000000000000000000000000000000000000000000000000000000081526004016108bc9061292b565b60405180910390fd5b600460003373ffffffffffffffffffffffffffffffffffffffff1673ffffffffffffffffffffffffffffffffffffffff16815260200190815260200160002060006003815260200190815260200160002060009054906101000a900460ff16610a21576001600460003373ffffffffffffffffffffffffffffffffffffffff1673ffffffffffffffffffffffffffffffffffffffff16815260200190815260200160002060006003815260200190815260200160002060006101000a81548160ff02191690831515021790555060008054906101000a900473ffffffffffffffffffffffffffffffffffffffff1673ffffffffffffffffffffffffffffffffffffffff1663158a49883360026040518363ffffffff1660e01b81526004016109ee92919061284d565b600060405180830381600087803b158015610a0857600080fd5b505af1158015610a1c573d6000803e3d6000fd5b505050505b565b60046020528160005260406000206020528060005260406000206000915091509054906101000a900460ff1681565b6000600360009054906101000a900473ffffffffffffffffffffffffffffffffffffffff1673ffffffffffffffffffffffffffffffffffffffff166370a08231600560003373ffffffffffffffffffffffffffffffffffffffff1673ffffffffffffffffffffffffffffffffffffffff16815260200190815260200160002060009054906101000a900473ffffffffffffffffffffffffffffffffffffffff166040518263ffffffff1660e01b8152600401610b0e9190612832565b60206040518083038186803b158015610b2657600080fd5b505afa158015610b3a573d6000803e3d6000fd5b505050506040513d601f19601f82011682018060405250810190610b5e9190612665565b9050600560003373ffffffffffffffffffffffffffffffffffffffff1673ffffffffffffffffffffffffffffffffffffffff16815260200190815260200160002060009054906101000a900473ffffffffffffffffffffffffffffffffffffffff1673ffffffffffffffffffffffffffffffffffffffff16631a231a716040518163ffffffff1660e01b8152600401600060405180830381600087803b158015610c0757600080fd5b505af1158015610c1b573d6000803e3d6000fd5b505050506000600360009054906101000a900473ffffffffffffffffffffffffffffffffffffffff1673ffffffffffffffffffffffffffffffffffffffff166370a08231600560003373ffffffffffffffffffffffffffffffffffffffff1673ffffffffffffffffffffffffffffffffffffffff16815260200190815260200160002060009054906101000a900473ffffffffffffffffffffffffffffffffffffffff166040518263ffffffff1660e01b8152600401610cdb9190612832565b60206040518083038186803b158015610cf357600080fd5b505afa158015610d07573d6000803e3d6000fd5b505050506040513d601f19601f82011682018060405250810190610d2b9190612665565b9050808210610d6f576040517f08c379a0000000000000000000000000000000000000000000000000000000008152600401610d669061294b565b60405180910390fd5b600460003373ffffffffffffffffffffffffffffffffffffffff1673ffffffffffffffffffffffffffffffffffffffff16815260200190815260200160002060006006815260200190815260200160002060009054906101000a900460ff16610ecb576001600460003373ffffffffffffffffffffffffffffffffffffffff1673ffffffffffffffffffffffffffffffffffffffff16815260200190815260200160002060006006815260200190815260200160002060006101000a81548160ff02191690831515021790555060008054906101000a900473ffffffffffffffffffffffffffffffffffffffff1673ffffffffffffffffffffffffffffffffffffffff1663158a49883360026040518363ffffffff1660e01b8152600401610e9892919061284d565b600060405180830381600087803b158015610eb257600080fd5b505af1158015610ec6573d6000803e3d6000fd5b505050505b5050565b6000600160009054906101000a900473ffffffffffffffffffffffffffffffffffffffff1673ffffffffffffffffffffffffffffffffffffffff166370a08231336040518263ffffffff1660e01b8152600401610f2c9190612832565b60206040518083038186803b158015610f4457600080fd5b505afa158015610f58573d6000803e3d6000fd5b505050506040513d601f19601f82011682018060405250810190610f7c9190612665565b11610fbc576040517f08c379a0000000000000000000000000000000000000000000000000000000008152600401610fb39061292b565b60405180910390fd5b600460003373ffffffffffffffffffffffffffffffffffffffff1673ffffffffffffffffffffffffffffffffffffffff16815260200190815260200160002060006001815260200190815260200160002060009054906101000a900460ff16611118576001600460003373ffffffffffffffffffffffffffffffffffffffff1673ffffffffffffffffffffffffffffffffffffffff16815260200190815260200160002060006001815260200190815260200160002060006101000a81548160ff02191690831515021790555060008054906101000a900473ffffffffffffffffffffffffffffffffffffffff1673ffffffffffffffffffffffffffffffffffffffff1663158a49883360026040518363ffffffff1660e01b81526004016110e592919061284d565b600060405180830381600087803b1580156110ff57600080fd5b505af1158015611113573d6000803e3d6000fd5b505050505b565b600560003373ffffffffffffffffffffffffffffffffffffffff1673ffffffffffffffffffffffffffffffffffffffff16815260200190815260200160002060009054906101000a900473ffffffffffffffffffffffffffffffffffffffff1673ffffffffffffffffffffffffffffffffffffffff1663d871f5946040518163ffffffff1660e01b8152600401600060405180830381600087803b1580156111c157600080fd5b505af11580156111d5573d6000803e3d6000fd5b505050506000600260009054906101000a900473ffffffffffffffffffffffffffffffffffffffff1673ffffffffffffffffffffffffffffffffffffffff166370a08231600560003373ffffffffffffffffffffffffffffffffffffffff1673ffffffffffffffffffffffffffffffffffffffff16815260200190815260200160002060009054906101000a900473ffffffffffffffffffffffffffffffffffffffff166040518263ffffffff1660e01b81526004016112959190612832565b60206040518083038186803b1580156112ad57600080fd5b505afa1580156112c1573d6000803e3d6000fd5b505050506040513d601f19601f820116820180604052508101906112e59190612665565b9050600064e8d4a510009050808211611333576040517f08c379a000000000000000000000000000000000000000000000000000000000815260040161132a9061290b565b60405180910390fd5b600460003373ffffffffffffffffffffffffffffffffffffffff1673ffffffffffffffffffffffffffffffffffffffff16815260200190815260200160002060006009815260200190815260200160002060009054906101000a900460ff1661148f576001600460003373ffffffffffffffffffffffffffffffffffffffff1673ffffffffffffffffffffffffffffffffffffffff16815260200190815260200160002060006009815260200190815260200160002060006101000a81548160ff02191690831515021790555060008054906101000a900473ffffffffffffffffffffffffffffffffffffffff1673ffffffffffffffffffffffffffffffffffffffff1663158a49883360046040518363ffffffff1660e01b815260040161145c929190612876565b600060405180830381600087803b15801561147657600080fd5b505af115801561148a573d6000803e3d6000fd5b505050505b5050565b6000600360009054906101000a900473ffffffffffffffffffffffffffffffffffffffff1673ffffffffffffffffffffffffffffffffffffffff166370a08231600560003373ffffffffffffffffffffffffffffffffffffffff1673ffffffffffffffffffffffffffffffffffffffff16815260200190815260200160002060009054906101000a900473ffffffffffffffffffffffffffffffffffffffff166040518263ffffffff1660e01b815260040161154f9190612832565b60206040518083038186803b15801561156757600080fd5b505afa15801561157b573d6000803e3d6000fd5b505050506040513d601f19601f8201168201806040525081019061159f9190612665565b9050600560003373ffffffffffffffffffffffffffffffffffffffff1673ffffffffffffffffffffffffffffffffffffffff16815260200190815260200160002060009054906101000a900473ffffffffffffffffffffffffffffffffffffffff1673ffffffffffffffffffffffffffffffffffffffff16634b5bd34f6040518163ffffffff1660e01b8152600401600060405180830381600087803b15801561164857600080fd5b505af115801561165c573d6000803e3d6000fd5b505050506000600360009054906101000a900473ffffffffffffffffffffffffffffffffffffffff1673ffffffffffffffffffffffffffffffffffffffff166370a08231600560003373ffffffffffffffffffffffffffffffffffffffff1673ffffffffffffffffffffffffffffffffffffffff16815260200190815260200160002060009054906101000a900473ffffffffffffffffffffffffffffffffffffffff166040518263ffffffff1660e01b815260040161171c9190612832565b60206040518083038186803b15801561173457600080fd5b505afa158015611748573d6000803e3d6000fd5b505050506040513d601f19601f8201168201806040525081019061176c9190612665565b90508082116117b0576040517f08c379a00000000000000000000000000000000000000000000000000000000081526004016117a7906129cb565b60405180910390fd5b600460003373ffffffffffffffffffffffffffffffffffffffff1673ffffffffffffffffffffffffffffffffffffffff16815260200190815260200160002060006007815260200190815260200160002060009054906101000a900460ff1661190c576001600460003373ffffffffffffffffffffffffffffffffffffffff1673ffffffffffffffffffffffffffffffffffffffff16815260200190815260200160002060006007815260200190815260200160002060006101000a81548160ff02191690831515021790555060008054906101000a900473ffffffffffffffffffffffffffffffffffffffff1673ffffffffffffffffffffffffffffffffffffffff1663158a49883360026040518363ffffffff1660e01b81526004016118d992919061284d565b600060405180830381600087803b1580156118f357600080fd5b505af1158015611907573d6000803e3d6000fd5b505050505b5050565b600360009054906101000a900473ffffffffffffffffffffffffffffffffffffffff1681565b600260009054906101000a900473ffffffffffffffffffffffffffffffffffffffff1681565b600460003373ffffffffffffffffffffffffffffffffffffffff1673ffffffffffffffffffffffffffffffffffffffff16815260200190815260200160002060006001815260200190815260200160002060009054906101000a900460ff166119fa576040517f08c379a00000000000000000000000000000000000000000000000000000000081526004016119f190612a0b565b60405180910390fd5b6000600160009054906101000a900473ffffffffffffffffffffffffffffffffffffffff1673ffffffffffffffffffffffffffffffffffffffff166370a08231336040518263ffffffff1660e01b8152600401611a579190612832565b60206040518083038186803b158015611a6f57600080fd5b505afa158015611a83573d6000803e3d6000fd5b505050506040513d601f19601f82011682018060405250810190611aa79190612665565b14611ae7576040517f08c379a0000000000000000000000000000000000000000000000000000000008152600401611ade9061292b565b60405180910390fd5b600460003373ffffffffffffffffffffffffffffffffffffffff1673ffffffffffffffffffffffffffffffffffffffff16815260200190815260200160002060006004815260200190815260200160002060009054906101000a900460ff16611c43576001600460003373ffffffffffffffffffffffffffffffffffffffff1673ffffffffffffffffffffffffffffffffffffffff16815260200190815260200160002060006004815260200190815260200160002060006101000a81548160ff02191690831515021790555060008054906101000a900473ffffffffffffffffffffffffffffffffffffffff1673ffffffffffffffffffffffffffffffffffffffff1663158a49883360026040518363ffffffff1660e01b8152600401611c1092919061284d565b600060405180830381600087803b158015611c2a57600080fd5b505af1158015611c3e573d6000803e3d6000fd5b505050505b565b6000600160009054906101000a900473ffffffffffffffffffffffffffffffffffffffff1673ffffffffffffffffffffffffffffffffffffffff166370a08231600560003373ffffffffffffffffffffffffffffffffffffffff1673ffffffffffffffffffffffffffffffffffffffff16815260200190815260200160002060009054906101000a900473ffffffffffffffffffffffffffffffffffffffff166040518263ffffffff1660e01b8152600401611d019190612832565b60206040518083038186803b158015611d1957600080fd5b505afa158015611d2d573d6000803e3d6000fd5b505050506040513d601f19601f82011682018060405250810190611d519190612665565b9050600560003373ffffffffffffffffffffffffffffffffffffffff1673ffffffffffffffffffffffffffffffffffffffff16815260200190815260200160002060009054906101000a900473ffffffffffffffffffffffffffffffffffffffff1673ffffffffffffffffffffffffffffffffffffffff1663db50609f6040518163ffffffff1660e01b8152600401600060405180830381600087803b158015611dfa57600080fd5b505af1158015611e0e573d6000803e3d6000fd5b505050506000600160009054906101000a900473ffffffffffffffffffffffffffffffffffffffff1673ffffffffffffffffffffffffffffffffffffffff166370a08231600560003373ffffffffffffffffffffffffffffffffffffffff1673ffffffffffffffffffffffffffffffffffffffff16815260200190815260200160002060009054906101000a900473ffffffffffffffffffffffffffffffffffffffff166040518263ffffffff1660e01b8152600401611ece9190612832565b60206040518083038186803b158015611ee657600080fd5b505afa158015611efa573d6000803e3d6000fd5b505050506040513d601f19601f82011682018060405250810190611f1e9190612665565b9050808211611f62576040517f08c379a0000000000000000000000000000000000000000000000000000000008152600401611f59906129ab565b60405180910390fd5b600460003373ffffffffffffffffffffffffffffffffffffffff1673ffffffffffffffffffffffffffffffffffffffff16815260200190815260200160002060006008815260200190815260200160002060009054906101000a900460ff166120be576001600460003373ffffffffffffffffffffffffffffffffffffffff1673ffffffffffffffffffffffffffffffffffffffff16815260200190815260200160002060006008815260200190815260200160002060006101000a81548160ff02191690831515021790555060008054906101000a900473ffffffffffffffffffffffffffffffffffffffff1673ffffffffffffffffffffffffffffffffffffffff1663158a49883360026040518363ffffffff1660e01b815260040161208b92919061284d565b600060405180830381600087803b1580156120a557600080fd5b505af11580156120b9573d6000803e3d6000fd5b505050505b5050565b60008054906101000a900473ffffffffffffffffffffffffffffffffffffffff1681565b6000600160009054906101000a900473ffffffffffffffffffffffffffffffffffffffff1673ffffffffffffffffffffffffffffffffffffffff166370a08231600560003373ffffffffffffffffffffffffffffffffffffffff1673ffffffffffffffffffffffffffffffffffffffff16815260200190815260200160002060009054906101000a900473ffffffffffffffffffffffffffffffffffffffff166040518263ffffffff1660e01b81526004016121a29190612832565b60206040518083038186803b1580156121ba57600080fd5b505afa1580156121ce573d6000803e3d6000fd5b505050506040513d601f19601f820116820180604052508101906121f29190612665565b9050600560003373ffffffffffffffffffffffffffffffffffffffff1673ffffffffffffffffffffffffffffffffffffffff16815260200190815260200160002060009054906101000a900473ffffffffffffffffffffffffffffffffffffffff1673ffffffffffffffffffffffffffffffffffffffff1663f6b96bae6040518163ffffffff1660e01b8152600401600060405180830381600087803b15801561229b57600080fd5b505af11580156122af573d6000803e3d6000fd5b505050506000600160009054906101000a900473ffffffffffffffffffffffffffffffffffffffff1673ffffffffffffffffffffffffffffffffffffffff166370a08231600560003373ffffffffffffffffffffffffffffffffffffffff1673ffffffffffffffffffffffffffffffffffffffff16815260200190815260200160002060009054906101000a900473ffffffffffffffffffffffffffffffffffffffff166040518263ffffffff1660e01b815260040161236f9190612832565b60206040518083038186803b15801561238757600080fd5b505afa15801561239b573d6000803e3d6000fd5b505050506040513d601f19601f820116820180604052508101906123bf9190612665565b9050808210612403576040517f08c379a00000000000000000000000000000000000000000000000000000000081526004016123fa9061298b565b60405180910390fd5b600460003373ffffffffffffffffffffffffffffffffffffffff1673ffffffffffffffffffffffffffffffffffffffff16815260200190815260200160002060006005815260200190815260200160002060009054906101000a900460ff1661255f576001600460003373ffffffffffffffffffffffffffffffffffffffff1673ffffffffffffffffffffffffffffffffffffffff16815260200190815260200160002060006005815260200190815260200160002060006101000a81548160ff02191690831515021790555060008054906101000a900473ffffffffffffffffffffffffffffffffffffffff1673ffffffffffffffffffffffffffffffffffffffff1663158a49883360026040518363ffffffff1660e01b815260040161252c92919061284d565b600060405180830381600087803b15801561254657600080fd5b505af115801561255a573d6000803e3d6000fd5b505050505b5050565b60066020528060005260406000206000915054906101000a900460ff1681565b60008135905061259281612da1565b92915050565b6000813590506125a781612db8565b92915050565b6000813590506125bc81612dcf565b92915050565b6000815190506125d181612dcf565b92915050565b6000602082840312156125e957600080fd5b60006125f784828501612583565b91505092915050565b6000806040838503121561261357600080fd5b600061262185828601612583565b9250506020612632858286016125ad565b9150509250929050565b60006020828403121561264e57600080fd5b600061265c84828501612598565b91505092915050565b60006020828403121561267757600080fd5b6000612685848285016125c2565b91505092915050565b61269781612a3c565b82525050565b6126a681612a4e565b82525050565b6126b581612a96565b82525050565b6126c481612aba565b82525050565b6126d381612ade565b82525050565b6126e281612b02565b82525050565b6126f181612b14565b82525050565b6000612704602683612a2b565b915061270f82612b26565b604082019050919050565b6000612727602483612a2b565b915061273282612b75565b604082019050919050565b600061274a602383612a2b565b915061275582612bc4565b604082019050919050565b600061276d601d83612a2b565b915061277882612c13565b602082019050919050565b6000612790602483612a2b565b915061279b82612c3c565b604082019050919050565b60006127b3602983612a2b565b91506127be82612c8b565b604082019050919050565b60006127d6602683612a2b565b91506127e182612cda565b604082019050919050565b60006127f9602483612a2b565b915061280482612d29565b604082019050919050565b600061281c601d83612a2b565b915061282782612d78565b602082019050919050565b6000602082019050612847600083018461268e565b92915050565b6000604082019050612862600083018561268e565b61286f60208301846126d9565b9392505050565b600060408201905061288b600083018561268e565b61289860208301846126e8565b9392505050565b60006020820190506128b4600083018461269d565b92915050565b60006020820190506128cf60008301846126ac565b92915050565b60006020820190506128ea60008301846126bb565b92915050565b600060208201905061290560008301846126ca565b92915050565b60006020820190508181036000830152612924816126f7565b9050919050565b600060208201905081810360008301526129448161271a565b9050919050565b600060208201905081810360008301526129648161273d565b9050919050565b6000602082019050818103600083015261298481612760565b9050919050565b600060208201905081810360008301526129a481612783565b9050919050565b600060208201905081810360008301526129c4816127a6565b9050919050565b600060208201905081810360008301526129e4816127c9565b9050919050565b60006020820190508181036000830152612a04816127ec565b9050919050565b60006020820190508181036000830152612a248161280f565b9050919050565b600082825260208201905092915050565b6000612a4782612a6c565b9050919050565b60008115159050919050565b6000612a6582612a3c565b9050919050565b600073ffffffffffffffffffffffffffffffffffffffff82169050919050565b6000819050919050565b6000612aa182612aa8565b9050919050565b6000612ab382612a6c565b9050919050565b6000612ac582612acc565b9050919050565b6000612ad782612a6c565b9050919050565b6000612ae982612af0565b9050919050565b6000612afb82612a6c565b9050919050565b6000612b0d82612a8c565b9050919050565b6000612b1f82612a8c565b9050919050565b7f596f757220636f6e747261637420646f6573206e6f7420686f6c6420314d206460008201527f6f6c6c6172730000000000000000000000000000000000000000000000000000602082015250565b7f53656e64657220686173206e6f74206465706f73697465642044414920696e2060008201527f4141564500000000000000000000000000000000000000000000000000000000602082015250565b7f596f757220636f6e747261637420646964206e6f7420626f72726f7720746f6b60008201527f656e730000000000000000000000000000000000000000000000000000000000602082015250565b7f596f752073686f756c64206861766520636f6d706c6574656420657832000000600082015250565b7f596f757220636f6e747261637420646964206e6f74206465706f73697420746f60008201527f6b656e7300000000000000000000000000000000000000000000000000000000602082015250565b7f596f757220636f6e747261637420646964206e6f74207769746864726177206960008201527f747320746f6b656e730000000000000000000000000000000000000000000000602082015250565b7f596f757220636f6e747261637420646964206e6f74207265706179206974732060008201527f746f6b656e730000000000000000000000000000000000000000000000000000602082015250565b7f53656e64657220686173206e6f7420626f72726f776564205553444320696e2060008201527f4141564500000000000000000000000000000000000000000000000000000000602082015250565b7f596f752073686f756c64206861766520636f6d706c6574656420657831000000600082015250565b612daa81612a3c565b8114612db557600080fd5b50565b612dc181612a5a565b8114612dcc57600080fd5b50565b612dd881612a8c565b8114612de357600080fd5b5056fea2646970667358221220cbe63b29e4aa6db653e7ca5742d8d876965b76479d7ed172685b61a5029b7cd364736f6c63430008020033",
  "immutableReferences": {},
  "source": "pragma solidity >0.6.0;\r\npragma experimental ABIEncoderV2;\r\n\r\nimport \"./ERC20TD.sol\";\r\nimport \"./IExerciceSolution.sol\";\r\nimport \"@openzeppelin/contracts/token/ERC20/IERC20.sol\";\r\n\r\n// import \"./utils/IUniswapV2Factory.sol\";\r\n// import \"./utils/IUniswapV2Pair.sol\";\r\n\r\ncontract Evaluator \r\n{\r\n\r\n\tERC20TD public TDAAVE;\r\n\tIERC20 public aDAI;\r\n\tIERC20 public USDC;\r\n\tIERC20 public variableDebtUSDC;\r\n\r\n \tmapping(address => mapping(uint256 => bool)) public exerciceProgression;\r\n \tmapping(address => IExerciceSolution) public studentExercice;\r\n \tmapping(address => bool) public hasBeenPaired;\r\n\r\n \tevent constructedCorrectly(address erc20Address, address adaiAddress, address UsdcAddress, address variableDebtUSDCAddress);\r\n\tconstructor(ERC20TD _TDAAVE, IERC20 _aDAI, IERC20 _USDC, IERC20 _variableDebtUSDC) \r\n\tpublic \r\n\t{\r\n\t\tTDAAVE = _TDAAVE;\r\n\t\taDAI = _aDAI;\r\n\t\tUSDC = _USDC;\r\n\t\tvariableDebtUSDC = _variableDebtUSDC;\r\n\t\temit constructedCorrectly(address(TDAAVE), address(aDAI), address(USDC), address(variableDebtUSDC));\r\n\r\n\t}\r\n\r\n\tfallback () external payable \r\n\t{}\r\n\r\n\treceive () external payable \r\n\t{}\r\n\r\n\tfunction ex1_showIDepositedTokens()\r\n\tpublic\r\n\t{\r\n\r\n\t\t// Sender should have deposited testnet aDAI\r\n\t\trequire(aDAI.balanceOf(msg.sender) > 0, \"Sender has not deposited DAI in AAVE\");\r\n\r\n\t\t// Distributing points\r\n\t\tif (!exerciceProgression[msg.sender][1])\r\n\t\t{\r\n\t\t\texerciceProgression[msg.sender][1] = true;\r\n\t\t\tTDAAVE.distributeTokens(msg.sender, 2);\r\n\t\t}\r\n\r\n\t}\r\n\r\n\tfunction ex2_showIBorrowedTokens()\r\n\tpublic\r\n\t{\r\n\r\n\t\t// Sender should have borrowed USDC on AAVE \r\n\t\trequire(variableDebtUSDC.balanceOf(msg.sender) > 0, \"Sender has not borrowed USDC in AAVE\");\r\n\r\n\t\t// Distributing points\r\n\t\tif (!exerciceProgression[msg.sender][2])\r\n\t\t{\r\n\t\t\texerciceProgression[msg.sender][2] = true;\r\n\t\t\tTDAAVE.distributeTokens(msg.sender, 2);\r\n\t\t}\r\n\r\n\t}\r\n\r\n\tfunction ex3_showIRepaidTokens()\r\n\tpublic\r\n\t{\r\n\r\n\t\trequire(exerciceProgression[msg.sender][2], \"You should have completed ex2\");\r\n\t\t// // Sender should repaid his testnet USDC\r\n\t\trequire(variableDebtUSDC.balanceOf(msg.sender) == 0, \"Sender has not deposited DAI in AAVE\");\r\n\r\n\t\t// Distributing points\r\n\t\tif (!exerciceProgression[msg.sender][3])\r\n\t\t{\r\n\t\t\texerciceProgression[msg.sender][3] = true;\r\n\t\t\tTDAAVE.distributeTokens(msg.sender, 2);\r\n\t\t}\r\n\r\n\t}\r\n\r\n\tfunction ex4_showIWithdrewTokens()\r\n\tpublic\r\n\t{\r\n\r\n\t\trequire(exerciceProgression[msg.sender][1], \"You should have completed ex1\");\r\n\r\n\t\t// // Sender should have no more testnet aDAI\r\n\t\trequire(aDAI.balanceOf(msg.sender) == 0, \"Sender has not deposited DAI in AAVE\");\r\n\r\n\t\t// Distributing points\r\n\t\tif (!exerciceProgression[msg.sender][4])\r\n\t\t{\r\n\t\t\texerciceProgression[msg.sender][4] = true;\r\n\t\t\tTDAAVE.distributeTokens(msg.sender, 2);\r\n\t\t}\r\n\r\n\t}\r\n\r\n\tfunction ex5_showContractCanDepositTokens()\r\n\tpublic\r\n\t{\r\n\t\t// Reading initial aDai balance\r\n\t\tuint256 initialBalance = aDAI.balanceOf(address(studentExercice[msg.sender]));\r\n\r\n\t\t// Trigger token deposit function\r\n\t\tstudentExercice[msg.sender].depositSomeTokens();\r\n\r\n\t\t// Read end balance\r\n\t\tuint256 endBalance = aDAI.balanceOf(address(studentExercice[msg.sender]));\r\n\r\n\t\t// Verify that contract did borrow\r\n\t\trequire(initialBalance < endBalance, \"Your contract did not deposit tokens\");\r\n\r\n\t\t// Distributing points\r\n\t\tif (!exerciceProgression[msg.sender][5])\r\n\t\t{\r\n\t\t\texerciceProgression[msg.sender][5] = true;\r\n\t\t\tTDAAVE.distributeTokens(msg.sender, 2);\r\n\t\t}\r\n\t}\r\n\r\n\tfunction ex6_showContractCanBorrowTokens()\r\n\tpublic\r\n\t{\r\n\t\t// Reading initial variableDebtUSDC balance\r\n\t\tuint256 initialBalance = variableDebtUSDC.balanceOf(address(studentExercice[msg.sender]));\r\n\r\n\t\t// Trigger token deposit function\r\n\t\tstudentExercice[msg.sender].borrowSomeTokens();\r\n\r\n\t\t// Read end balance\r\n\t\tuint256 endBalance = variableDebtUSDC.balanceOf(address(studentExercice[msg.sender]));\r\n\r\n\t\t// Verify that contract did borrow\r\n\t\trequire(initialBalance < endBalance, \"Your contract did not borrow tokens\");\r\n\r\n\t\t// Distributing points\r\n\t\tif (!exerciceProgression[msg.sender][6])\r\n\t\t{\r\n\t\t\texerciceProgression[msg.sender][6] = true;\r\n\t\t\tTDAAVE.distributeTokens(msg.sender, 2);\r\n\t\t}\r\n\t}\r\n\r\n\tfunction ex7_showContractCanRepayTokens()\r\n\tpublic\r\n\t{\r\n\t\t// Reading initial variableDebtUSDC balance\r\n\t\tuint256 initialBalance = variableDebtUSDC.balanceOf(address(studentExercice[msg.sender]));\r\n\r\n\t\t// Trigger token deposit function\r\n\t\tstudentExercice[msg.sender].repaySomeTokens();\r\n\r\n\t\t// Read end balance\r\n\t\tuint256 endBalance = variableDebtUSDC.balanceOf(address(studentExercice[msg.sender]));\r\n\r\n\t\t// Verify that contract did borrow\r\n\t\trequire(initialBalance > endBalance, \"Your contract did not repay its tokens\");\r\n\r\n\t\t// Distributing points\r\n\t\tif (!exerciceProgression[msg.sender][7])\r\n\t\t{\r\n\t\t\texerciceProgression[msg.sender][7] = true;\r\n\t\t\tTDAAVE.distributeTokens(msg.sender, 2);\r\n\t\t}\r\n\t}\r\n\r\n\tfunction ex8_showContractCanWithdrawTokens()\r\n\tpublic\r\n\t{\r\n\t\t// Reading initial aDai balance\r\n\t\tuint256 initialBalance = aDAI.balanceOf(address(studentExercice[msg.sender]));\r\n\r\n\t\t// Trigger token deposit function\r\n\t\tstudentExercice[msg.sender].withdrawSomeTokens();\r\n\r\n\t\t// Read end balance\r\n\t\tuint256 endBalance = aDAI.balanceOf(address(studentExercice[msg.sender]));\r\n\r\n\t\t// Verify that contract did borrow\r\n\t\trequire(initialBalance > endBalance, \"Your contract did not withdraw its tokens\");\r\n\r\n\t\t// Distributing points\r\n\t\tif (!exerciceProgression[msg.sender][8])\r\n\t\t{\r\n\t\t\texerciceProgression[msg.sender][8] = true;\r\n\t\t\tTDAAVE.distributeTokens(msg.sender, 2);\r\n\t\t}\r\n\t}\r\n\r\n\tfunction ex9_performFlashLoan()\r\n\tpublic\r\n\t{\t\r\n\t\t// Check https://docs.aave.com/developers/guides/flash-loans\r\n\r\n\t\t// Trigger flash loan launch function\r\n\t\tstudentExercice[msg.sender].doAFlashLoan();\r\n\r\n\t\t// Read end balance\r\n\t\tuint256 endBalance = USDC.balanceOf(address(studentExercice[msg.sender]));\r\n\r\n\t\t// Your contract has to borrow 1M USDC. The USDC contract has 6 decimals\r\n\t\tuint256 amountToBorrow = 1000000 * 1000000;\r\n\t\t// Verify that contract did borrow\r\n\t\trequire(endBalance > amountToBorrow, \"Your contract does not hold 1M dollars\");\r\n\r\n\t\t// Distributing points\r\n\t\tif (!exerciceProgression[msg.sender][9])\r\n\t\t{\r\n\t\t\texerciceProgression[msg.sender][9] = true;\r\n\t\t\tTDAAVE.distributeTokens(msg.sender, 4);\r\n\t\t}\r\n\t}\r\n\r\n\r\n\tmodifier onlyTeachers() \r\n\t{\r\n\r\n\t    require(TDAAVE.teachers(msg.sender));\r\n\t    _;\r\n\t}\r\n\r\n\tfunction submitExercice(IExerciceSolution studentExercice_)\r\n\tpublic\r\n\t{\r\n\t\t// Checking this contract was not used by another group before\r\n\t\trequire(!hasBeenPaired[address(studentExercice_)]);\r\n\r\n\t\t// Assigning passed ERC20 as student ERC20\r\n\t\tstudentExercice[msg.sender] = studentExercice_;\r\n\t\thasBeenPaired[address(studentExercice_)] = true;\r\n\t\t\t\r\n\t}\r\n\r\n}\r\n",
  "sourcePath": "D:\\Dossier Alexis\\Administratif\\Ecole\\Cours\\S8\\Decentralized Finance\\TD4-DeFi\\contracts\\Evaluator.sol",
  "compiler": {
    "name": "solc",
    "version": "0.8.2+commit.661d1103.Emscripten.clang"
  },
  "schemaVersion": "3.4.6",
  "updatedAt": "2022-04-09T05:17:31.104Z",
  "devdoc": {
    "kind": "dev",
    "methods": {},
    "version": 1
  },
  "userdoc": {
    "kind": "user",
    "methods": {},
    "version": 1
  }
}