{
  "contractName": "MySolution",
  "abi": [
    {
      "inputs": [],
      "name": "depositSomeTokens",
      "outputs": [],
      "stateMutability": "nonpayable",
      "type": "function"
    },
    {
      "inputs": [],
      "name": "withdrawSomeTokens",
      "outputs": [],
      "stateMutability": "nonpayable",
      "type": "function"
    },
    {
      "inputs": [],
      "name": "borrowSomeTokens",
      "outputs": [],
      "stateMutability": "nonpayable",
      "type": "function"
    },
    {
      "inputs": [],
      "name": "repaySomeTokens",
      "outputs": [],
      "stateMutability": "nonpayable",
      "type": "function"
    },
    {
      "inputs": [],
      "name": "doAFlashLoan",
      "outputs": [],
      "stateMutability": "nonpayable",
      "type": "function"
    },
    {
      "inputs": [],
      "name": "repayFlashLoan",
      "outputs": [],
      "stateMutability": "nonpayable",
      "type": "function"
    }
  ],
  "bytecode": "0x608060405234801561001057600080fd5b5060d18061001f6000396000f3fe6080604052348015600f57600080fd5b5060043610605a5760003560e01c80631a231a7114605f5780634b5bd34f146067578063d871f59414606f578063db50609f146077578063f6b96bae14607f578063fc6669b6146087575b600080fd5b6065608f565b005b606d6091565b005b60756093565b005b607d6095565b005b60856097565b005b608d6099565b005b565b565b565b565b565b56fea2646970667358221220a2dc3b92b21d2b5b6ff7ab724265e964432936502cd63619430dab5716164e5d64736f6c63430008020033",
  "immutableReferences": {},
  "source": "pragma solidity >0.6.0;\r\n\r\ncontract MySolution \r\n{\r\n\tfunction depositSomeTokens() external {\r\n\r\n    }\r\n\r\n\tfunction withdrawSomeTokens() external {\r\n\r\n    }\r\n\r\n\tfunction borrowSomeTokens() external {\r\n\r\n    }\r\n\r\n\tfunction repaySomeTokens() external {\r\n\r\n    }\r\n\r\n\tfunction doAFlashLoan() external {\r\n\r\n    }\r\n\r\n\tfunction repayFlashLoan() external {\r\n\r\n    }\r\n}",
  "sourcePath": "D:\\Dossier Alexis\\Administratif\\Ecole\\Cours\\S8\\Decentralized Finance\\TD4-DeFi\\contracts\\MySolution.sol",
  "compiler": {
    "name": "solc",
    "version": "0.8.2+commit.661d1103.Emscripten.clang"
  },
  "schemaVersion": "3.4.6",
  "updatedAt": "2022-04-09T05:17:31.218Z",
  "devdoc": {
    "kind": "dev",
    "methods": {},
    "version": 1
  },
  "userdoc": {
    "kind": "user",
    "methods": {},
    "version": 1
  }
}